:100000000C942A000C9447000C9447000C94470071
:100010000C9447000C9447000C9447000C94470044
:100020000C9447000C9447000C9447000C94470034
:100030000C9447000C9447000C9447000C94470024
:100040000C9447000C9447000C9447000C94470014
:100050000C94470011241FBECFE5D8E0DEBFCDBF12
:1000600010E0A0E6B0E0E0E1F1E002C005900D9202
:10007000A636B107D9F720E0A6E6B0E001C01D9290
:10008000AC36B207E1F70E9449000C9486000C944C
:100090000000CF93DF93CDB7DEB780E690E00E94FB
:1000A000560080E090E0DF91CF9108950F931F9369
:1000B000CF93DF93E0916800F0916900238121FFE5
:1000C0001BC08C01D0E0C0E0F80181918F016091EC
:1000D000680070916900DB011896ED91FC91199709
:1000E000882331F00995892B79F3DFEFCFEFECCF3F
:1000F0008AE00995892B19F08FEF9FEF02C08D2FB1
:100100009C2FDF91CF911F910F910895F894FFCF0D
:0601100068656C6C6F00D5
:00000001FF
