:100000000C942A000C9434000C9434000C943400AA
:100010000C9434000C9434000C9434000C94340090
:100020000C9434000C9434000C9434000C94340080
:100030000C9434000C9434000C9434000C94340070
:100040000C9434000C9434000C9434000C94340060
:100050000C94340011241FBECFE5D4E0DEBFCDBF29
:100060000E943C010C948D010C940000CF93DF930F
:1000700000D0CDB7DEB78983FB014A838A81813006
:10008000C1F59BB3808198130AC039812AB381E0FE
:1000900090E001C0880F3A95EAF7822B3DC098B3F3
:1000A000808198130AC0398127B381E090E001C0B4
:1000B000880F3A95EAF7822B41C095B38081981357
:1000C0000AC0398124B381E090E001C0880F3A95DD
:1000D000EAF7822B45C092B38081981354C03981CE
:1000E00021B381E090E001C0880F3A95EAF7822BB6
:1000F00049C08A81811147C09BB3808198130EC08B
:1001000039812AB381E090E002C0880F991F3A95A7
:10011000E2F78095909582238ABB35C098B38081A1
:1001200098130EC0398127B381E090E002C0880F98
:10013000991F3A95E2F780959095822387BB23C05B
:1001400095B3808198130EC0398124B381E090E08B
:1001500002C0880F991F3A95E2F780959095822307
:1001600084BB11C092B3808198130DC0398121B333
:1001700081E090E002C0880F991F3A95E2F78095E0
:100180009095822381BB0F900F90DF91CF910895BE
:10019000CF93DF9300D0CDB7DEB78983FB014A83CD
:1001A0008A81813051F43981208181E090E001C061
:1001B000880F3A95EAF7822B0FC08A8181110DC012
:1001C0003981208181E090E002C0880F991F3A9523
:1001D000E2F780959095822380830F900F90DF91B6
:1001E000CF910895CF93DF931F92CDB7DEB7898368
:1001F0003981FB01208181E090E001C0880F3A95B0
:10020000EAF7822B80830F90DF91CF910895CF93EF
:10021000DF931F92CDB7DEB789833981FB0120813F
:1002200081E090E002C0880F991F3A95E2F780952F
:100230009095822380830F90DF91CF91089580B7AE
:10024000846080BF089580B78B7F80BF0895CF936F
:10025000DF931F92CDB7DEB789830000FB012081B9
:10026000398181E090E001C0880F3A95EAF7822356
:100270000F90DF91CF91089541E06BE370E080E053
:100280000E94360040E06BE370E081E00E9436009F
:100290006BE370E081E00E94F2006BE370E081E0CC
:1002A0000E94270141E06BE370E08823D1F080E0F9
:1002B0000E94C8002FEF8FEB91E2215080409040C8
:1002C000E1F700C0000040E06BE370E080E00E94D6
:1002D000C8002FEF8FEB91E2215080409040E1F772
:1002E00019C080E00E94C8002FEF8FE19AE02150F2
:1002F00080409040E1F700C0000040E06BE370E018
:1003000080E00E94C8002FEF8FE19AE021508040EA
:0E0310009040E1F700C00000C0CFF894FFCF8E
:00000001FF
